:020000040000FA
:040000008A156C29C8
:041000000034003484
:0C100400851622200C301C2038301C20E7
:10101000080001301C20080080381C200800C0385F
:101020001C200800303E1520080005168700851298
:1010300022208516051208008700851222208516B9
:1010400022200800E630A0000430A100A00B2928CF
:10105000A10B26282B280000080083120317710615
:10106000A2007208F100A3010310220CA206A30C37
:10107000220CF200A30CA20DA206220EA206230847
:10108000A218013AF106C030A218F2060800831235
:10109000031386166720080083120317A400083084
:1010A000A500831203138612672083120317A40C72
:1010B00083120313031C8612031886166720A50BE0
:1010C00055288312031386166720672008008312B1
:1010D00003174330A600A60B6B2808003B2108002D
:1010E000831203170130BA002730BB0080200311A0
:1010F0003E1F7D283908FF397F2803157F28080007
:10110000BE01B901B90A0830C200FE20BE1C892800
:1011100093283E1C8528BF01BF0ABE143E153E160B
:101120000130C0008528BF0A3E19AF283E1CA32805
:10113000C00B8528CD203E1FCC283E15BE11BF0117
:101140000130C00085283F08073C0319BE153F0841
:101150000F3C031D8528BE16CD20B903CC283E1CAC
:10116000BB283F08073C0319BE153F080F3C031D71
:1011700085283E13CC28C00B85283E1EC3283E126E
:10118000BE1DC628BE11CD203E1FCC283E11BE116B
:10119000BF010130C0008528080039080A3C031946
:1011A000E428BE1FDE28BE13C11FDA283E19E4283A
:1011B000C113E6283E1DE428C117E62803103E1996
:1011C0000314C10CBE17E6283E13FC28BE1BF528ED
:1011D000C20BF5280830C2003B08840083133A187C
:1011E000831741088000BB0AB90A3E17BE1DFC28C0
:1011F000BE1AFC28BE11CD28BE12080083120313AC
:1012000089309F005821831203139F149F180629C9
:10121000831203131E08831203173C0203191B29B0
:1012200000000000000000000000000000000000BE
:10123000031824292629831603131E088312031773
:101240003D020318242926293E1034298312031352
:101250001E0883120317C300831603131E0883128C
:101260000317C4003E1434298312031380309F00F7
:1012700083120317080083120313A9309F0058211B
:10128000831203139F149F184329831203131E080C
:1012900083120317BC00831603131E08831203175F
:1012A000BD008312031380309F00831203170800D0
:1012B000831203171430B700B70B5C2908008312A0
:1012C00003178E30B7000230B800B70B6829B80B8F
:1012D00065296A29000008008316031370308F0007
:1012E00083160313003081008316031350309F00D0
:1012F000831203179E019F011E151F1583160313EA
:101300008501051583160313860106160617831635
:101310000313870183120313850186018701831656
:10132000031300309000831203136E204720022025
:1013300000300C2057301520653015206C301520FA
:10134000633015206F3015206D3015206530152065
:1013500021301520203015203A3015202D30152051
:101360002930152070200319F629F101F2018312AA
:1013700003170130F4002730F5003908F300F303B8
:10138000F3037508840083137418831700082D2055
:10139000840AF30BC6290008F102031DF929840A07
:1013A0000008F202031DF929831203170130F4002B
:1013B0002730F5007508840083137418831700081C
:1013C000013C031DFC2900304C208312031739080F
:1013D000F300F303F3037508840083137418831771
:1013E00000084C20840AF30BF029FF2901304C201F
:1013F000FF2902304C20FF2903304C20FF29B2295D
:02400E00C430BC
:00000001FF
